{
  "_format": "hh-sol-artifact-1",
  "contractName": "Router",
  "sourceName": "contracts/Router.sol",
  "abi": [
    {
      "inputs": [
        {
          "internalType": "address",
          "name": "pool",
          "type": "address"
        },
        {
          "internalType": "uint256",
          "name": "amountA",
          "type": "uint256"
        },
        {
          "internalType": "uint256",
          "name": "amountB",
          "type": "uint256"
        }
      ],
      "name": "addLiquidity",
      "outputs": [],
      "stateMutability": "nonpayable",
      "type": "function"
    },
    {
      "inputs": [
        {
          "internalType": "address",
          "name": "pool",
          "type": "address"
        },
        {
          "internalType": "address",
          "name": "tokenIn",
          "type": "address"
        },
        {
          "internalType": "uint256",
          "name": "amountIn",
          "type": "uint256"
        },
        {
          "internalType": "uint256",
          "name": "minAmountOut",
          "type": "uint256"
        },
        {
          "internalType": "uint256",
          "name": "deadline",
          "type": "uint256"
        }
      ],
      "name": "swapExactTokensForTokens",
      "outputs": [],
      "stateMutability": "nonpayable",
      "type": "function"
    }
  ],
  "bytecode": "0x608060405234801561001057600080fd5b50610ca6806100206000396000f3fe608060405234801561001057600080fd5b50600436106100365760003560e01c806355776b771461003b578063e5fa9cfc14610057575b600080fd5b61005560048036038101906100509190610926565b610073565b005b610071600480360381019061006c9190610979565b6103e5565b005b600083905060008173ffffffffffffffffffffffffffffffffffffffff16630fc63d106040518163ffffffff1660e01b8152600401602060405180830381865afa1580156100c5573d6000803e3d6000fd5b505050506040513d601f19601f820116820180604052508101906100e99190610a32565b905060008273ffffffffffffffffffffffffffffffffffffffff16635f64b55b6040518163ffffffff1660e01b8152600401602060405180830381865afa158015610138573d6000803e3d6000fd5b505050506040513d601f19601f8201168201806040525081019061015c9190610a32565b90508173ffffffffffffffffffffffffffffffffffffffff166323b872dd3330886040518463ffffffff1660e01b815260040161019b93929190610a7d565b6020604051808303816000875af11580156101ba573d6000803e3d6000fd5b505050506040513d601f19601f820116820180604052508101906101de9190610aec565b508073ffffffffffffffffffffffffffffffffffffffff166323b872dd3330876040518463ffffffff1660e01b815260040161021c93929190610a7d565b6020604051808303816000875af115801561023b573d6000803e3d6000fd5b505050506040513d601f19601f8201168201806040525081019061025f9190610aec565b508173ffffffffffffffffffffffffffffffffffffffff1663095ea7b387876040518363ffffffff1660e01b815260040161029b929190610b19565b6020604051808303816000875af11580156102ba573d6000803e3d6000fd5b505050506040513d601f19601f820116820180604052508101906102de9190610aec565b508073ffffffffffffffffffffffffffffffffffffffff1663095ea7b387866040518363ffffffff1660e01b815260040161031a929190610b19565b6020604051808303816000875af1158015610339573d6000803e3d6000fd5b505050506040513d601f19601f8201168201806040525081019061035d9190610aec565b508273ffffffffffffffffffffffffffffffffffffffff16639cd441da86866040518363ffffffff1660e01b8152600401610399929190610b42565b6020604051808303816000875af11580156103b8573d6000803e3d6000fd5b505050506040513d601f19601f820116820180604052508101906103dc9190610b80565b50505050505050565b600085905060008173ffffffffffffffffffffffffffffffffffffffff16630fc63d106040518163ffffffff1660e01b8152600401602060405180830381865afa158015610437573d6000803e3d6000fd5b505050506040513d601f19601f8201168201806040525081019061045b9190610a32565b73ffffffffffffffffffffffffffffffffffffffff168673ffffffffffffffffffffffffffffffffffffffff1614610501578173ffffffffffffffffffffffffffffffffffffffff16630fc63d106040518163ffffffff1660e01b8152600401602060405180830381865afa1580156104d8573d6000803e3d6000fd5b505050506040513d601f19601f820116820180604052508101906104fc9190610a32565b610571565b8173ffffffffffffffffffffffffffffffffffffffff16635f64b55b6040518163ffffffff1660e01b8152600401602060405180830381865afa15801561054c573d6000803e3d6000fd5b505050506040513d601f19601f820116820180604052508101906105709190610a32565b5b90508573ffffffffffffffffffffffffffffffffffffffff166323b872dd3330886040518463ffffffff1660e01b81526004016105b093929190610a7d565b6020604051808303816000875af11580156105cf573d6000803e3d6000fd5b505050506040513d601f19601f820116820180604052508101906105f39190610aec565b508573ffffffffffffffffffffffffffffffffffffffff1663095ea7b388876040518363ffffffff1660e01b815260040161062f929190610b19565b6020604051808303816000875af115801561064e573d6000803e3d6000fd5b505050506040513d601f19601f820116820180604052508101906106729190610aec565b5060008173ffffffffffffffffffffffffffffffffffffffff166370a08231306040518263ffffffff1660e01b81526004016106ae9190610bad565b602060405180830381865afa1580156106cb573d6000803e3d6000fd5b505050506040513d601f19601f820116820180604052508101906106ef9190610b80565b90508273ffffffffffffffffffffffffffffffffffffffff1663c9ec9248888888886040518563ffffffff1660e01b81526004016107309493929190610bc8565b6020604051808303816000875af115801561074f573d6000803e3d6000fd5b505050506040513d601f19601f820116820180604052508101906107739190610b80565b5060008273ffffffffffffffffffffffffffffffffffffffff166370a08231306040518263ffffffff1660e01b81526004016107af9190610bad565b602060405180830381865afa1580156107cc573d6000803e3d6000fd5b505050506040513d601f19601f820116820180604052508101906107f09190610b80565b9050600082826108009190610c3c565b90508373ffffffffffffffffffffffffffffffffffffffff1663a9059cbb33836040518363ffffffff1660e01b815260040161083d929190610b19565b6020604051808303816000875af115801561085c573d6000803e3d6000fd5b505050506040513d601f19601f820116820180604052508101906108809190610aec565b5050505050505050505050565b600080fd5b600073ffffffffffffffffffffffffffffffffffffffff82169050919050565b60006108bd82610892565b9050919050565b6108cd816108b2565b81146108d857600080fd5b50565b6000813590506108ea816108c4565b92915050565b6000819050919050565b610903816108f0565b811461090e57600080fd5b50565b600081359050610920816108fa565b92915050565b60008060006060848603121561093f5761093e61088d565b5b600061094d868287016108db565b935050602061095e86828701610911565b925050604061096f86828701610911565b9150509250925092565b600080600080600060a086880312156109955761099461088d565b5b60006109a3888289016108db565b95505060206109b4888289016108db565b94505060406109c588828901610911565b93505060606109d688828901610911565b92505060806109e788828901610911565b9150509295509295909350565b60006109ff826108b2565b9050919050565b610a0f816109f4565b8114610a1a57600080fd5b50565b600081519050610a2c81610a06565b92915050565b600060208284031215610a4857610a4761088d565b5b6000610a5684828501610a1d565b91505092915050565b610a68816108b2565b82525050565b610a77816108f0565b82525050565b6000606082019050610a926000830186610a5f565b610a9f6020830185610a5f565b610aac6040830184610a6e565b949350505050565b60008115159050919050565b610ac981610ab4565b8114610ad457600080fd5b50565b600081519050610ae681610ac0565b92915050565b600060208284031215610b0257610b0161088d565b5b6000610b1084828501610ad7565b91505092915050565b6000604082019050610b2e6000830185610a5f565b610b3b6020830184610a6e565b9392505050565b6000604082019050610b576000830185610a6e565b610b646020830184610a6e565b9392505050565b600081519050610b7a816108fa565b92915050565b600060208284031215610b9657610b9561088d565b5b6000610ba484828501610b6b565b91505092915050565b6000602082019050610bc26000830184610a5f565b92915050565b6000608082019050610bdd6000830187610a5f565b610bea6020830186610a6e565b610bf76040830185610a6e565b610c046060830184610a6e565b95945050505050565b7f4e487b7100000000000000000000000000000000000000000000000000000000600052601160045260246000fd5b6000610c47826108f0565b9150610c52836108f0565b9250828203905081811115610c6a57610c69610c0d565b5b9291505056fea2646970667358221220ef0a81555b71afacfc2159826178ff39225e9560ba9e6eacf31a20f752c8a05d64736f6c63430008180033",
  "linkReferences": {},
  "deployedLinkReferences": {}
}